{
  "abi": [
    {
      "inputs": [],
      "stateMutability": "nonpayable",
      "type": "constructor"
    },
    {
      "inputs": [
        {
          "internalType": "address",
          "name": "",
          "type": "address"
        }
      ],
      "name": "balanceOf",
      "outputs": [
        {
          "internalType": "uint256",
          "name": "",
          "type": "uint256"
        }
      ],
      "stateMutability": "view",
      "type": "function"
    },
    {
      "inputs": [
        {
          "internalType": "uint256",
          "name": "amountIn",
          "type": "uint256"
        }
      ],
      "name": "depositDAI",
      "outputs": [],
      "stateMutability": "nonpayable",
      "type": "function"
    },
    {
      "inputs": [
        {
          "internalType": "uint256",
          "name": "amountIn",
          "type": "uint256"
        }
      ],
      "name": "depositUSDC",
      "outputs": [],
      "stateMutability": "nonpayable",
      "type": "function"
    },
    {
      "inputs": [
        {
          "internalType": "uint256",
          "name": "amountOut",
          "type": "uint256"
        }
      ],
      "name": "withdrawDAI",
      "outputs": [],
      "stateMutability": "nonpayable",
      "type": "function"
    },
    {
      "inputs": [
        {
          "internalType": "uint256",
          "name": "amountOut",
          "type": "uint256"
        }
      ],
      "name": "withdrawUSDC",
      "outputs": [],
      "stateMutability": "nonpayable",
      "type": "function"
    }
  ],
  "bytecode": {
    "object": "0x6080604052600080546001600160a01b0319908116737a250d5630b4cf539739df2c5dacb4c659f2488d17909155600180548216736b175474e89094c44da98b954eedeac495271d0f1790556002805490911673a0b86991c6218b36c1d19d4a2e9eb0ce3606eb4817905534801561007657600080fd5b5060015460005460405163095ea7b360e01b81526001600160a01b039182166004820152600019602482015291169063095ea7b3906044016020604051808303816000875af11580156100cd573d6000803e3d6000fd5b505050506040513d601f19601f820116820180604052508101906100f19190610172565b5060025460005460405163095ea7b360e01b81526001600160a01b039182166004820152600019602482015291169063095ea7b3906044016020604051808303816000875af1158015610148573d6000803e3d6000fd5b505050506040513d601f19601f8201168201806040525081019061016c9190610172565b5061019b565b60006020828403121561018457600080fd5b8151801515811461019457600080fd5b9392505050565b610a2b806101aa6000396000f3fe608060405234801561001057600080fd5b50600436106100575760003560e01c8063365833e11461005c57806370a08231146100715780639add7438146100a3578063db81f99b146100b6578063f688bcfb146100c9575b600080fd5b61006f61006a36600461079b565b6100dc565b005b61009161007f3660046107b4565b60036020526000908152604090205481565b60405190815260200160405180910390f35b61006f6100b136600461079b565b61019c565b61006f6100c436600461079b565b610480565b61006f6100d736600461079b565b6106f4565b6001546040516323b872dd60e01b8152336004820152306024820152604481018390526000916001600160a01b0316906323b872dd906064016020604051808303816000875af1158015610134573d6000803e3d6000fd5b505050506040513d601f19601f8201168201806040525081019061015891906107e4565b90508061016457600080fd5b6101746509184e72a0008361081c565b336000908152600360205260408120805490919061019390849061083e565b90915550505050565b336000908152600360205260409020548111156101b857600080fd5b33600090815260036020526040812080548392906101d7908490610857565b909155506101ed9050816509184e72a00061086a565b6001546040516370a0823160e01b81523060048201526001600160a01b03909116906370a0823190602401602060405180830381865afa158015610235573d6000803e3d6000fd5b505050506040513d601f19601f820116820180604052508101906102599190610881565b10156103ea57604080516002808252606080830184529260208301908036833701905050905073a0b86991c6218b36c1d19d4a2e9eb0ce3606eb48816000815181106102a7576102a76108b0565b60200260200101906001600160a01b031690816001600160a01b031681525050736b175474e89094c44da98b954eedeac495271d0f816001815181106102ef576102ef6108b0565b6001600160a01b039283166020918202929092010152600080546002546040516370a0823160e01b81523060048201529293918216926338ed17399291909116906370a0823190602401602060405180830381865afa158015610356573d6000803e3d6000fd5b505050506040513d601f19601f8201168201806040525081019061037a9190610881565b60008530426040518663ffffffff1660e01b815260040161039f9594939291906108c6565b6000604051808303816000875af11580156103be573d6000803e3d6000fd5b505050506040513d6000823e601f3d908101601f191682016040526103e69190810190610937565b5050505b6001546001600160a01b031663a9059cbb3361040c846509184e72a00061086a565b6040516001600160e01b031960e085901b1681526001600160a01b03909216600483015260248201526044015b6020604051808303816000875af1158015610458573d6000803e3d6000fd5b505050506040513d601f19601f8201168201806040525081019061047c91906107e4565b5050565b3360009081526003602052604090205481111561049c57600080fd5b33600090815260036020526040812080548392906104bb908490610857565b90915550506002546040516370a0823160e01b815230600482015282916001600160a01b0316906370a0823190602401602060405180830381865afa158015610508573d6000803e3d6000fd5b505050506040513d601f19601f8201168201806040525081019061052c9190610881565b10156106bd576040805160028082526060808301845292602083019080368337019050509050736b175474e89094c44da98b954eedeac495271d0f8160008151811061057a5761057a6108b0565b60200260200101906001600160a01b031690816001600160a01b03168152505073a0b86991c6218b36c1d19d4a2e9eb0ce3606eb48816001815181106105c2576105c26108b0565b6001600160a01b039283166020918202929092010152600080546001546040516370a0823160e01b81523060048201529293918216926338ed17399291909116906370a0823190602401602060405180830381865afa158015610629573d6000803e3d6000fd5b505050506040513d601f19601f8201168201806040525081019061064d9190610881565b60008530426040518663ffffffff1660e01b81526004016106729594939291906108c6565b6000604051808303816000875af1158015610691573d6000803e3d6000fd5b505050506040513d6000823e601f3d908101601f191682016040526106b99190810190610937565b5050505b60025460405163a9059cbb60e01b8152336004820152602481018390526001600160a01b039091169063a9059cbb90604401610439565b6002546040516323b872dd60e01b8152336004820152306024820152604481018390526000916001600160a01b0316906323b872dd906064016020604051808303816000875af115801561074c573d6000803e3d6000fd5b505050506040513d601f19601f8201168201806040525081019061077091906107e4565b90508061077c57600080fd5b336000908152600360205260408120805484929061019390849061083e565b6000602082840312156107ad57600080fd5b5035919050565b6000602082840312156107c657600080fd5b81356001600160a01b03811681146107dd57600080fd5b9392505050565b6000602082840312156107f657600080fd5b815180151581146107dd57600080fd5b634e487b7160e01b600052601160045260246000fd5b60008261083957634e487b7160e01b600052601260045260246000fd5b500490565b8082018082111561085157610851610806565b92915050565b8181038181111561085157610851610806565b808202811582820484141761085157610851610806565b60006020828403121561089357600080fd5b5051919050565b634e487b7160e01b600052604160045260246000fd5b634e487b7160e01b600052603260045260246000fd5b600060a082018783526020878185015260a0604085015281875180845260c086019150828901935060005b818110156109165784516001600160a01b0316835293830193918301916001016108f1565b50506001600160a01b03969096166060850152505050608001529392505050565b6000602080838503121561094a57600080fd5b825167ffffffffffffffff8082111561096257600080fd5b818501915085601f83011261097657600080fd5b8151818111156109885761098861089a565b8060051b604051601f19603f830116810181811085821117156109ad576109ad61089a565b6040529182528482019250838101850191888311156109cb57600080fd5b938501935b828510156109e9578451845293850193928501926109d0565b9897505050505050505056fea2646970667358221220f8a34bfcc9c7f2a3b22d7e3413347be647300b7ba1dd207fe32dc74958b7f78064736f6c63430008130033",
    "linkReferences": {}
  },
  "methodIdentifiers": {
    "balanceOf(address)": "70a08231",
    "depositDAI(uint256)": "365833e1",
    "depositUSDC(uint256)": "f688bcfb",
    "withdrawDAI(uint256)": "9add7438",
    "withdrawUSDC(uint256)": "db81f99b"
  },
  "id": 0
}