{
  "abi": [
    {
      "inputs": [],
      "stateMutability": "payable",
      "type": "constructor"
    },
    {
      "inputs": [],
      "name": "TARGET",
      "outputs": [
        {
          "internalType": "contract Chal",
          "name": "",
          "type": "address"
        }
      ],
      "stateMutability": "view",
      "type": "function"
    },
    {
      "inputs": [],
      "name": "curTargetBalance",
      "outputs": [
        {
          "internalType": "uint256",
          "name": "",
          "type": "uint256"
        }
      ],
      "stateMutability": "view",
      "type": "function"
    },
    {
      "inputs": [],
      "name": "isSolved",
      "outputs": [
        {
          "internalType": "bool",
          "name": "",
          "type": "bool"
        }
      ],
      "stateMutability": "view",
      "type": "function"
    }
  ],
  "bytecode": {
    "object": "0x60a06040819052600080546001600160a01b0319908116737a250d5630b4cf539739df2c5dacb4c659f2488d17909155600180548216736b175474e89094c44da98b954eedeac495271d0f17905560028054821673a0b86991c6218b36c1d19d4a2e9eb0ce3606eb481790556003805490911673c02aaa39b223fe8d0a0e5c4f27ead9083c756cc217905561009390610607565b604051809103906000f0801580156100af573d6000803e3d6000fd5b506001600160a01b031660805268056bc75e2d6310000034146100d157600080fd5b600360009054906101000a90046001600160a01b03166001600160a01b031663d0e30db068056bc75e2d631000006040518263ffffffff1660e01b81526004016000604051808303818588803b15801561012a57600080fd5b505af115801561013e573d6000803e3d6000fd5b505060035460005460405163095ea7b360e01b81526001600160a01b03918216600482015260001960248201529116935063095ea7b3925060440190506020604051808303816000875af115801561019a573d6000803e3d6000fd5b505050506040513d601f19601f820116820180604052508101906101be9190610614565b5060015460005460405163095ea7b360e01b81526001600160a01b039182166004820152600019602482015291169063095ea7b3906044016020604051808303816000875af1158015610215573d6000803e3d6000fd5b505050506040513d601f19601f820116820180604052508101906102399190610614565b5060025460005460405163095ea7b360e01b81526001600160a01b039182166004820152600019602482015291169063095ea7b3906044016020604051808303816000875af1158015610290573d6000803e3d6000fd5b505050506040513d601f19601f820116820180604052508101906102b49190610614565b50604080516002808252606080830184529260208301908036833701905050905073c02aaa39b223fe8d0a0e5c4f27ead9083c756cc2816000815181106102fd576102fd610653565b60200260200101906001600160a01b031690816001600160a01b03168152505073a0b86991c6218b36c1d19d4a2e9eb0ce3606eb488160018151811061034557610345610653565b6001600160a01b039283166020918202929092010152600080546080516040516338ed173960e01b8152929391909116916338ed17399161039a916802b5e3af16b18800009186918891904290600401610669565b6000604051808303816000875af11580156103b9573d6000803e3d6000fd5b505050506040513d6000823e601f3d908101601f191682016040526103e191908101906106da565b90505073c02aaa39b223fe8d0a0e5c4f27ead9083c756cc28160008151811061040c5761040c610653565b60200260200101906001600160a01b031690816001600160a01b031681525050736b175474e89094c44da98b954eedeac495271d0f8160018151811061045457610454610653565b6001600160a01b039283166020918202929092010152600080546080516040516338ed173960e01b8152929391909116916338ed1739916104a9916802b5e3af16b18800009186918891904290600401610669565b6000604051808303816000875af11580156104c8573d6000803e3d6000fd5b505050506040513d6000823e601f3d908101601f191682016040526104f091908101906106da565b506104fb9050610504565b600455506107f9565b6001546080516040516370a0823160e01b81526001600160a01b0391821660048201526000926509184e72a0009216906370a0823190602401602060405180830381865afa15801561055a573d6000803e3d6000fd5b505050506040513d601f19601f8201168201806040525081019061057e9190610797565b61058891906107b0565b6002546080516040516370a0823160e01b81526001600160a01b0391821660048201529116906370a0823190602401602060405180830381865afa1580156105d4573d6000803e3d6000fd5b505050506040513d601f19601f820116820180604052508101906105f89190610797565b61060291906107d2565b905090565b610bd580610ace83390190565b60006020828403121561062657600080fd5b8151801515811461063657600080fd5b9392505050565b634e487b7160e01b600052604160045260246000fd5b634e487b7160e01b600052603260045260246000fd5b600060a082018783526020878185015260a0604085015281875180845260c086019150828901935060005b818110156106b95784516001600160a01b031683529383019391830191600101610694565b50506001600160a01b03969096166060850152505050608001529392505050565b600060208083850312156106ed57600080fd5b82516001600160401b038082111561070457600080fd5b818501915085601f83011261071857600080fd5b81518181111561072a5761072a61063d565b8060051b604051601f19603f8301168101818110858211171561074f5761074f61063d565b60405291825284820192508381018501918883111561076d57600080fd5b938501935b8285101561078b57845184529385019392850192610772565b98975050505050505050565b6000602082840312156107a957600080fd5b5051919050565b6000826107cd57634e487b7160e01b600052601260045260246000fd5b500490565b808201808211156107f357634e487b7160e01b600052601160045260246000fd5b92915050565b6080516102ae61082060003960008181607e0152818160d2015261017401526102ae6000f3fe608060405234801561001057600080fd5b50600436106100415760003560e01c806356514c861461004657806364d98f6e14610061578063cc1f2afa14610079575b600080fd5b61004e6100b8565b6040519081526020015b60405180910390f35b6100696101f7565b6040519015158152602001610058565b6100a07f000000000000000000000000000000000000000000000000000000000000000081565b6040516001600160a01b039091168152602001610058565b6001546040516370a0823160e01b81526001600160a01b037f0000000000000000000000000000000000000000000000000000000000000000811660048301526000926509184e72a000929116906370a0823190602401602060405180830381865afa15801561012c573d6000803e3d6000fd5b505050506040513d601f19601f820116820180604052508101906101509190610216565b61015a919061022f565b6002546040516370a0823160e01b81526001600160a01b037f000000000000000000000000000000000000000000000000000000000000000081166004830152909116906370a0823190602401602060405180830381865afa1580156101c4573d6000803e3d6000fd5b505050506040513d601f19601f820116820180604052508101906101e89190610216565b6101f29190610251565b905090565b6000600a600454610208919061022f565b6102106100b8565b10905090565b60006020828403121561022857600080fd5b5051919050565b60008261024c57634e487b7160e01b600052601260045260246000fd5b500490565b8082018082111561027257634e487b7160e01b600052601160045260246000fd5b9291505056fea264697066735822122087196e8250a3b764a60316b536f8ab13dbd9502af3cd5d50eefb8588d4aeab2664736f6c634300081300336080604052600080546001600160a01b0319908116737a250d5630b4cf539739df2c5dacb4c659f2488d17909155600180548216736b175474e89094c44da98b954eedeac495271d0f1790556002805490911673a0b86991c6218b36c1d19d4a2e9eb0ce3606eb4817905534801561007657600080fd5b5060015460005460405163095ea7b360e01b81526001600160a01b039182166004820152600019602482015291169063095ea7b3906044016020604051808303816000875af11580156100cd573d6000803e3d6000fd5b505050506040513d601f19601f820116820180604052508101906100f19190610172565b5060025460005460405163095ea7b360e01b81526001600160a01b039182166004820152600019602482015291169063095ea7b3906044016020604051808303816000875af1158015610148573d6000803e3d6000fd5b505050506040513d601f19601f8201168201806040525081019061016c9190610172565b5061019b565b60006020828403121561018457600080fd5b8151801515811461019457600080fd5b9392505050565b610a2b806101aa6000396000f3fe608060405234801561001057600080fd5b50600436106100575760003560e01c8063365833e11461005c57806370a08231146100715780639add7438146100a3578063db81f99b146100b6578063f688bcfb146100c9575b600080fd5b61006f61006a36600461079b565b6100dc565b005b61009161007f3660046107b4565b60036020526000908152604090205481565b60405190815260200160405180910390f35b61006f6100b136600461079b565b61019c565b61006f6100c436600461079b565b610480565b61006f6100d736600461079b565b6106f4565b6001546040516323b872dd60e01b8152336004820152306024820152604481018390526000916001600160a01b0316906323b872dd906064016020604051808303816000875af1158015610134573d6000803e3d6000fd5b505050506040513d601f19601f8201168201806040525081019061015891906107e4565b90508061016457600080fd5b6101746509184e72a0008361081c565b336000908152600360205260408120805490919061019390849061083e565b90915550505050565b336000908152600360205260409020548111156101b857600080fd5b33600090815260036020526040812080548392906101d7908490610857565b909155506101ed9050816509184e72a00061086a565b6001546040516370a0823160e01b81523060048201526001600160a01b03909116906370a0823190602401602060405180830381865afa158015610235573d6000803e3d6000fd5b505050506040513d601f19601f820116820180604052508101906102599190610881565b10156103ea57604080516002808252606080830184529260208301908036833701905050905073a0b86991c6218b36c1d19d4a2e9eb0ce3606eb48816000815181106102a7576102a76108b0565b60200260200101906001600160a01b031690816001600160a01b031681525050736b175474e89094c44da98b954eedeac495271d0f816001815181106102ef576102ef6108b0565b6001600160a01b039283166020918202929092010152600080546002546040516370a0823160e01b81523060048201529293918216926338ed17399291909116906370a0823190602401602060405180830381865afa158015610356573d6000803e3d6000fd5b505050506040513d601f19601f8201168201806040525081019061037a9190610881565b60008530426040518663ffffffff1660e01b815260040161039f9594939291906108c6565b6000604051808303816000875af11580156103be573d6000803e3d6000fd5b505050506040513d6000823e601f3d908101601f191682016040526103e69190810190610937565b5050505b6001546001600160a01b031663a9059cbb3361040c846509184e72a00061086a565b6040516001600160e01b031960e085901b1681526001600160a01b03909216600483015260248201526044015b6020604051808303816000875af1158015610458573d6000803e3d6000fd5b505050506040513d601f19601f8201168201806040525081019061047c91906107e4565b5050565b3360009081526003602052604090205481111561049c57600080fd5b33600090815260036020526040812080548392906104bb908490610857565b90915550506002546040516370a0823160e01b815230600482015282916001600160a01b0316906370a0823190602401602060405180830381865afa158015610508573d6000803e3d6000fd5b505050506040513d601f19601f8201168201806040525081019061052c9190610881565b10156106bd576040805160028082526060808301845292602083019080368337019050509050736b175474e89094c44da98b954eedeac495271d0f8160008151811061057a5761057a6108b0565b60200260200101906001600160a01b031690816001600160a01b03168152505073a0b86991c6218b36c1d19d4a2e9eb0ce3606eb48816001815181106105c2576105c26108b0565b6001600160a01b039283166020918202929092010152600080546001546040516370a0823160e01b81523060048201529293918216926338ed17399291909116906370a0823190602401602060405180830381865afa158015610629573d6000803e3d6000fd5b505050506040513d601f19601f8201168201806040525081019061064d9190610881565b60008530426040518663ffffffff1660e01b81526004016106729594939291906108c6565b6000604051808303816000875af1158015610691573d6000803e3d6000fd5b505050506040513d6000823e601f3d908101601f191682016040526106b99190810190610937565b5050505b60025460405163a9059cbb60e01b8152336004820152602481018390526001600160a01b039091169063a9059cbb90604401610439565b6002546040516323b872dd60e01b8152336004820152306024820152604481018390526000916001600160a01b0316906323b872dd906064016020604051808303816000875af115801561074c573d6000803e3d6000fd5b505050506040513d601f19601f8201168201806040525081019061077091906107e4565b90508061077c57600080fd5b336000908152600360205260408120805484929061019390849061083e565b6000602082840312156107ad57600080fd5b5035919050565b6000602082840312156107c657600080fd5b81356001600160a01b03811681146107dd57600080fd5b9392505050565b6000602082840312156107f657600080fd5b815180151581146107dd57600080fd5b634e487b7160e01b600052601160045260246000fd5b60008261083957634e487b7160e01b600052601260045260246000fd5b500490565b8082018082111561085157610851610806565b92915050565b8181038181111561085157610851610806565b808202811582820484141761085157610851610806565b60006020828403121561089357600080fd5b5051919050565b634e487b7160e01b600052604160045260246000fd5b634e487b7160e01b600052603260045260246000fd5b600060a082018783526020878185015260a0604085015281875180845260c086019150828901935060005b818110156109165784516001600160a01b0316835293830193918301916001016108f1565b50506001600160a01b03969096166060850152505050608001529392505050565b6000602080838503121561094a57600080fd5b825167ffffffffffffffff8082111561096257600080fd5b818501915085601f83011261097657600080fd5b8151818111156109885761098861089a565b8060051b604051601f19603f830116810181811085821117156109ad576109ad61089a565b6040529182528482019250838101850191888311156109cb57600080fd5b938501935b828510156109e9578451845293850193928501926109d0565b9897505050505050505056fea2646970667358221220f8a34bfcc9c7f2a3b22d7e3413347be647300b7ba1dd207fe32dc74958b7f78064736f6c63430008130033",
    "linkReferences": {}
  },
  "methodIdentifiers": {
    "TARGET()": "cc1f2afa",
    "curTargetBalance()": "56514c86",
    "isSolved()": "64d98f6e"
  },
  "id": 3
}